{
  "contractName": "Services",
  "abi": [
    {
      "constant": false,
      "inputs": [
        {
          "internalType": "uint256",
          "name": "_startTime",
          "type": "uint256"
        },
        {
          "internalType": "uint256",
          "name": "_endTime",
          "type": "uint256"
        },
        {
          "internalType": "string",
          "name": "_userID",
          "type": "string"
        }
      ],
      "name": "addService",
      "outputs": [],
      "payable": false,
      "stateMutability": "nonpayable",
      "type": "function"
    },
    {
      "constant": true,
      "inputs": [
        {
          "internalType": "string",
          "name": "_userID",
          "type": "string"
        }
      ],
      "name": "getService",
      "outputs": [
        {
          "components": [
            {
              "internalType": "uint256",
              "name": "startTime",
              "type": "uint256"
            },
            {
              "internalType": "uint256",
              "name": "endTime",
              "type": "uint256"
            },
            {
              "internalType": "string",
              "name": "userID",
              "type": "string"
            }
          ],
          "internalType": "struct Services.service",
          "name": "",
          "type": "tuple"
        }
      ],
      "payable": false,
      "stateMutability": "view",
      "type": "function"
    }
  ],
  "bytecode": "0x608060405234801561001057600080fd5b5061060e806100206000396000f3fe608060405234801561001057600080fd5b50600436106100365760003560e01c8063794758be1461003b5780638b41a3901461006b575b600080fd5b61005560048036036100509190810190610322565b610087565b60405161006291906104aa565b60405180910390f35b61008560048036036100809190810190610363565b610175565b005b61008f6101f3565b60008260405161009f9190610493565b90815260200160405180910390206040518060600160405290816000820154815260200160018201548152602001600282018054600181600116156101000203166002900480601f0160208091040260200160405190810160405280929190818152602001828054600181600116156101000203166002900480156101655780601f1061013a57610100808354040283529160200191610165565b820191906000526020600020905b81548152906001019060200180831161014857829003601f168201915b5050505050815250509050919050565b61017d6101f3565b8381600001818152505082816020018181525050818160400181905250806000836040516101ab9190610493565b9081526020016040518091039020600082015181600001556020820151816001015560408201518160020190805190602001906101e9929190610214565b5090505050505050565b60405180606001604052806000815260200160008152602001606081525090565b828054600181600116156101000203166002900490600052602060002090601f016020900481019282601f1061025557805160ff1916838001178555610283565b82800160010185558215610283579182015b82811115610282578251825591602001919060010190610267565b5b5090506102909190610294565b5090565b6102b691905b808211156102b257600081600090555060010161029a565b5090565b90565b600082601f8301126102ca57600080fd5b81356102dd6102d8826104f9565b6104cc565b915080825260208301602083018583830111156102f957600080fd5b610304838284610561565b50505092915050565b60008135905061031c816105b4565b92915050565b60006020828403121561033457600080fd5b600082013567ffffffffffffffff81111561034e57600080fd5b61035a848285016102b9565b91505092915050565b60008060006060848603121561037857600080fd5b60006103868682870161030d565b93505060206103978682870161030d565b925050604084013567ffffffffffffffff8111156103b457600080fd5b6103c0868287016102b9565b9150509250925092565b60006103d582610530565b6103df818561054c565b93506103ef818560208601610570565b80840191505092915050565b600061040682610525565b610410818561053b565b9350610420818560208601610570565b610429816105a3565b840191505092915050565b600060608301600083015161044c6000860182610484565b50602083015161045f6020860182610484565b506040830151848203604086015261047782826103fb565b9150508091505092915050565b61048d81610557565b82525050565b600061049f82846103ca565b915081905092915050565b600060208201905081810360008301526104c48184610434565b905092915050565b6000604051905081810181811067ffffffffffffffff821117156104ef57600080fd5b8060405250919050565b600067ffffffffffffffff82111561051057600080fd5b601f19601f8301169050602081019050919050565b600081519050919050565b600081519050919050565b600082825260208201905092915050565b600081905092915050565b6000819050919050565b82818337600083830152505050565b60005b8381101561058e578082015181840152602081019050610573565b8381111561059d576000848401525b50505050565b6000601f19601f8301169050919050565b6105bd81610557565b81146105c857600080fd5b5056fea365627a7a72315820c0732bf70e840a451519c77ca3328866feca5eb76bb8067e78f962c7b1ff4f0d6c6578706572696d656e74616cf564736f6c63430005100040",
  "source": "// SPDX-License-Identifier: MIT\r\npragma solidity >=0.4.22 <0.9.0;\r\npragma experimental ABIEncoderV2;\r\n\r\n\r\ncontract Services {\r\n    struct service { \r\n        uint256 startTime;\r\n        uint256 endTime;\r\n        string userID;\r\n    }\r\n    mapping(string => service) serviceMap;\r\n\r\n    function addService(uint256 _startTime, uint256 _endTime,string memory _userID) public {\r\n        service memory s;\r\n        s.startTime = _startTime;\r\n        s.endTime = _endTime;\r\n        s.userID = _userID;\r\n        serviceMap[_userID] = s;\r\n    }\r\n\r\n    function getService(string memory _userID) public view returns(service memory){\r\n        return serviceMap[_userID];\r\n    }\r\n}",
  "sourcePath": "D:\\Codes\\Minor 2\\backend\\contract\\contracts\\services.sol",
  "compiler": {
    "name": "solc",
    "version": "0.5.16+commit.9c3226ce.Emscripten.clang"
  },
  "schemaVersion": "3.4.7",
  "updatedAt": "2022-05-08T18:09:40.884Z",
  "networkType": "ethereum",
  "devdoc": {
    "methods": {}
  },
  "userdoc": {
    "methods": {}
  }
}